:020000040800F2
:1000000068F60020450100080D070008A306000857
:100010000907000811020008011200080000000092
:10002000000000000000000000000000AD08000813
:10003000530300080000000095070008F10D0008B8
:100040005F0100085F0100085F0100085F01000810
:100050005F0100085F0100085F0100085F01000800
:100060005F0100085F0100085F0100085F010008F0
:100070005F0100085F0100085F0100085F010008E0
:100080005F0100085F0100085F0100085F010008D0
:100090005F0100085F0100085F0100085F010008C0
:1000A0005F0100085F0100085F0100085F010008B0
:1000B0005F0100085F0100085F0100085F010008A0
:1000C0005F0100085F0100085F0100085F01000890
:1000D0005F010008550E00085F0100085F0100087D
:1000E0005F0100085F0100085F0100085F01000870
:1000F0005F0100085F0100085F0100085F01000860
:100100005F0100085F0100085F0100085F0100084F
:100110005F0100085F0100085F0100085F0100083F
:100120005F0100085F0100085F0100085F0100082F
:10013000DFF80CD000F05AF800480047C51300085B
:1001400068F600200648804706480047FEE7FEE7BD
:10015000FEE7FEE7FEE7FEE7FEE7FEE7FEE7FEE777
:10016000F50D00083101000810B5044604E00B78D5
:1001700000F8013B03B1491C521EF8D2204610BDC5
:10018000421C10F8011B0029FBD1801A704710B5E2
:10019000002200E0521C835C8C5CA34201D1002B46
:1001A000F8D1D8B2E1B2401A10BD30B505460020F2
:1001B000034600E05B1C934205D2EC5CC85C201A4D
:1001C00001D1002CF6D130BD40EA01039B0703D0DA
:1001D00009E008C9121F08C0042AFAD203E011F886
:1001E000013B00F8013B521EF9D27047064C074D07
:1001F00006E0E06840F0010394E8070098471034F7
:10020000AC42F6D3FFF798FF8C140008AC1400083A
:1002100000BFFEE700210170417081707047827855
:10022000521CB2F5007F01D1002282708378C21C7B
:10023000D25C0A708278521C8270704710B5427886
:100240000378D21A521CB2F5007F01D1002242700D
:100250000B784478C21C13554278521C427010BD72
:10026000F0B591B006460C4600250EE010A93046C8
:10027000FFF7D5FF9DF840000DF80500681CC5B2DA
:100280009DF840000A2800D100E0EFE700BF1748C2
:100290000068FFF775FF07463A461448016868464C
:1002A000FFF783FFB8B112480068FFF769FF074600
:1002B0003A460F4801686846FFF777FF58B10D4886
:1002C0000068FFF75DFF07463A460A48016868463E
:1002D000FFF76BFF38B9162269462046FFF744FF47
:1002E000012011B0F0BD0020FBE70000300000202D
:1002F000340000203800002010B51C2001F002F866
:10030000044614B10020A0612070204610BD10B535
:100310001C2000F0F7FF044614B10020A0612070FB
:10032000204610BD2DE9F04106460F463C46FFF73A
:10033000EEFF05460120287016223146681CFFF7A3
:1003400013FF00E0A469A0690028FBD1A561BDE806
:10035000F081704710B50C48FFF75CFFFFF7D7FF3F
:100360000A490860FFF7C8FF0949086000F09CF9D6
:1003700000F0AAFE00F066FE00F002FF00F082FB33
:1003800000F078F810BD00005E000020280000207A
:100390002C00002010B515491548FFF761FF18B370
:1003A00001201449086014480168104800F04AF818
:1003B000124908600846006840B1084601680B48C9
:1003C00000F0F2FA00200E49087009E00A480168BE
:1003D000064800F07FFA00F077FC0020084908701A
:1003E00001200449091F086010BD000048000020DA
:1003F0005E000020140C01402C000020280000208A
:100400001D00002010B50C48006800F083F80B4870
:1004100000680B49B0FBF1F201FB120028B900F0B3
:1004200041F80548006800F08FF804480068401C57
:100430000249086010BD00002C00002018000020B8
:1004400020A1070070B505460E4634460CE0A469AD
:100450002946601CFFF79BFE08B9204670BD044882
:100460000078401C02490870002CF0D10020F5E70C
:100470001D00002010B5012000F044FF074908606E
:10048000012000F03FFF064908600120096808705C
:10049000002002490968087010BD000020000020FB
:1004A000240000202DE9F0410025002415480668AD
:1004B0001548076800F0CCFA00BF0CE030783978B6
:1004C000884204D1284600F0A1FA601CC4B2761C10
:1004D0007F1C681CC5B20D4800888542EEDB0C49C4
:1004E0000978091BC8B200F0C5FB204600F0A4FB48
:1004F000002C02DD00BF00F0DBF90020034908807A
:10050000BDE8F08120000020240000203C000020F5
:100510001400002070B50546AC6909480178094807
:10052000006800F05FFF074908600846066803E0BE
:1005300020783070761CA469002CF9D170BD0000C1
:10054000140000202400002070B50546AC690B485B
:1005500001780B48006800F045FF0949086008462B
:10056000066808E02078307006480088401C05497D
:100570000880761CA469002CF4D170BD1400002002
:10058000200000203C0000202DE9F041024600251B
:100590000026002000230024002791F803C00CF05F
:1005A0000F0591F803C00CF0100CBCF1000F03D044
:1005B00091F802C04CEA050591F800C0BCF1000FAB
:1005C00031D0146800202BE04FF0010C0CFA00F33E
:1005D000B1F800C00CEA03069E4220D183004FF020
:1005E0000F0C0CFA03F7BC4305FA03FC4CEA0404B5
:1005F00091F803C0BCF1280F06D14FF0010C0CFAA2
:1006000000FCC2F814C00AE091F803C0BCF1480F26
:1006100005D14FF0010C0CFA00FCC2F810C0401CD0
:100620000828D1D31460B1F800C0BCF1FF0F34DD4D
:10063000546800202EE000F1080C4FF0010808FA81
:100640000CF3B1F800C00CEA03069E4221D18300EE
:100650004FF00F0C0CFA03F7BC4305FA03FC4CEA0D
:10066000040491F803C0BCF1280F05D100F1080C77
:1006700008FA0CF8C2F8148091F803C0BCF1480FD6
:1006800007D100F1080C4FF0010808FA0CF8C2F885
:100690001080401C0828CED35460BDE8F081016171
:1006A000704700BFFEE7000008B50121082000F0F8
:1006B00083F82020ADF8000010208DF803000320FF
:1006C0008DF8020069460F48FFF75EFF0120ADF884
:1006D000000069460B48FFF757FF0220ADF8000005
:1006E00069460848FFF750FF20210648FFF7D7FF6B
:1006F00001210448FFF7D3FF02210248FFF7CFFF93
:1007000008BD0000000C014000BFFEE7704700007C
:1007100070B5002100230F22C47804B3154C24685F
:1007200004F4E064C4F5E064210AC1F10403CA40A2
:10073000447804FA03F184781440214309010E4CF3
:100740000678A155047804F01F050124AC40057813
:100750006D11AD0005F1E025C5F8004109E0047810
:1007600004F01F050124AC40044D0678761145F8CD
:10077000264070BD0CED00E000E400E080E100E008
:1007800002490143024A1160704700000000FA0567
:100790000CED00E07047000029B1064AD26902431F
:1007A000044BDA6104E0034AD2698243014BDA6107
:1007B000704700000010024029B1064A92690243C6
:1007C000044B9A6104E0034A92698243014B9A61A7
:1007D000704700000010024030B5002100220024C4
:1007E00000232D4D6D6805F00C0121B1042905D0C1
:1007F000082923D105E0294D056022E0274D056039
:100800001FE0254D6D6805F47012234D6D6805F4E9
:100810008034022505EB92421CB9214D55430560F9
:100820000BE01D4D6D6805F400351DB11C4D5543A1
:10083000056002E0194D5543056002E0174D056063
:1008400000BF00BF144D6D6805F0F0010909154D9A
:100850006B5C0568DD4045600F4D6D6805F4E06137
:10086000090A104D6B5C4568DD4085600A4D6D6876
:1008700005F46051C90A0B4D6B5C4568DD40C560ED
:10088000054D6D6805F44041890B074D6B5CC568EB
:10089000B5FBF3F5056130BD0010024000127A008F
:1008A00000093D00000000201000002070470000FB
:1008B00010B5EE21064800F0E1FC46F20E110448A6
:1008C00000F0A0FC6FF44031014800F0C7FC10BDFF
:1008D0000044004070B504460D46EE21184800F073
:1008E000CDFC4BF25211164800F08CFC012114484B
:1008F00000F088FC0121124800F084FC00F08CF923
:100900003B210F4800F0BAFC204600F015F93B21CE
:100910000B4800F0B3FC00F001F93B21084800F05F
:10092000ADFC6FF44031064800F098FC05480078B3
:10093000401C0449087029462046FFF7F3FC70BDAF
:10094000004400401400002010B5EE21154800F0CE
:1009500095FC4BF25311134800F054FC012111484F
:1009600000F050FC01210F4800F04CFC6FF44031C6
:100970000C4800F073FCEE210A4800F07FFC4BF2BB
:100980005311084800F03EFC0121064800F03AFCF3
:100990000221044800F036FC6FF44031014800F0B9
:1009A0005DFC10BD0044004070B505460C46EE21CC
:1009B000154800F063FC4BF25711134800F022FC7D
:1009C0000121114800F01EFC01210F4800F01AFC23
:1009D00000F06EF900F028F93B210B4800F04EFCC6
:1009E000284600F0A9F83B21074800F047FC2046C4
:1009F00000F099F83B21044800F040FC6FF44031CE
:100A0000014800F02BFC70BD0044004010B50446C6
:100A1000EE210E4800F032FC4BF252110B4800F070
:100A2000F1FB0121094800F0EDFB0221074800F02D
:100A3000E9FB204600F090F83B21044800F01EFC42
:100A40006FF44031014800F009FC10BD0044004043
:100A500010B5EE210A4800F011FC4BF25311084882
:100A600000F0D0FB0121064800F0CCFB0221044835
:100A700000F0C8FB6FF44031014800F0EFFB10BDFF
:100A80000044004010B500F00DF800F031F8FFF719
:100A90005BFF00F019F9002000F0ECF8002000F0F6
:100AA000CBF810BD10B5EE210C4800F0E7FB0C4967
:100AB0000A4800F0D3FB0B49084800F0CFFB0A4975
:100AC000064800F0CBFB0949044800F0C7FB6FF46F
:100AD0004031024800F0C2FB10BD0000004400405D
:100AE0002F3A33946E756F53302F73647661772E7F
:100AF00010B5EE21084800F0C1FB4FF43141064823
:100B000000F080FB0121044800F07CFB6FF44031D1
:100B1000014800F0A3FB10BD0044004010B50120C7
:100B200000F01AF810BD10B504462078401C207063
:100B3000207800F011F810BD70B50546002400BF04
:100B400005E0295D034800F099FB601CC4B2142C39
:100B5000F7DB70BD0044004070B50446012C15DB86
:100B60000A2C13DA30212B4800F088FB3021294869
:100B700000F084FB0A2094FBF0F100FB11403030C0
:100B8000C5B22946234800F079FB42E00A2C1ADB63
:100B9000642C18DA30211F4800F070FB0A2094FB07
:100BA000F0F03030C5B229461A4800F067FB0A2041
:100BB00094FBF0F100FB11403030C5B229461548D6
:100BC00000F05CFB25E0642094FBF0F03030C5B20F
:100BD0002946104800F052FB642094FBF0F000EB33
:100BE000C00101EB0010A4EB80000A2190FBF1F0A2
:100BF0003030C5B22946074800F040FB0A2094FB7C
:100C0000F0F100FB11403030C5B22946014800F038
:100C100035FB70BD0044004010B502480078FFF776
:100C20009BFF10BD1400002010B502480078FFF7AC
:100C300093FF10BD1D00002010B50446EE210C48A6
:100C400000F01CFB4BF21011094800F0DBFA012107
:100C5000074800F0D7FA0521054800F0D3FA2046EE
:100C6000FFF77AFF6FF44031014800F0F7FA10BD4A
:100C70000044004010B50446EE210C4800F0FEFA96
:100C80004BF21011094800F0BDFA0121074800F0AD
:100C9000B9FA0421054800F0B5FA2046FFF75CFFD9
:100CA0006FF44031014800F0D9FA10BD0044004013
:100CB00010B503480178034800F0A4FA10BD000005
:100CC0001D0000200044004010B5EE210C4800F04B
:100CD000D5FA4BF210110A4800F094FA01210848A5
:100CE00000F090FA0321064800F08CFA05480078DD
:100CF000FFF732FF6FF44031014800F0AFFA10BD4A
:100D0000004400401400002010B500F001F810BDB0
:100D10000CB50020019000903348006840F480300A
:100D20003149086000BF3048006800F4003000908E
:100D30000198401C0190009818B90198B0F5A06F77
:100D4000F1D12948006800F4003010B10120009072
:100D500001E0002000900098012843D1234800685A
:100D600040F01000214908600846006820F00300A8
:100D700008600846006840F0020008601A484068B1
:100D8000194948600846406848600846406840F491
:100D9000806048600846406820F47C10486008463F
:100DA000406840F4E81048600846006840F08070F1
:100DB000086000BF0C48006800F000700028F9D0FF
:100DC0000948406820F00300074948600846406829
:100DD00040F00200486000BF0348406800F00C008B
:100DE0000828F9D10CBD000000100240002002408C
:100DF0007047000010B51348006840F00100114929
:100E0000086008464068104908400E494860084696
:100E100000680E4908400B4908600846006820F445
:100E2000802008600846406820F4FE0048604FF4C7
:100E30001F008860FFF768FF4FF0006004490860FA
:100E400010BD0000001002400000FFF8FFFFF6FE9A
:100E500008ED00E008B540F225510A4800F031F8ED
:100E600040B1084800F0E8F8C0B200906946064872
:100E7000FFF7E4F99DF800000A2802D10120034998
:100E8000087008BD003801405E0000201C000020F2
:100E900021B1828942F40052828104E082894DF6B8
:100EA000FF731A408281704702460020B1F5007F2F
:100EB00000D100BF13880B400BB1012000E00020DF
:100EC000704770B50246002400230025002040F63C
:100ED0006A16B14200D100BFC1F3421501F01F03F1
:100EE000012606FA03F3012D02D19689334006E06C
:100EF000022D02D1168A334001E0968A33400C124B
:100F0000012606FA04F41688344013B10CB101200E
:100F100000E0002070BDF0B5034600240026002547
:100F2000002040F66A17B94200D100BF1846C1F34D
:100F3000421401F01F06012707FA06F5012C01D122
:100F40000C3004E0022C01D1103000E014301AB152
:100F500007682F43076002E00768AF430760F0BDF2
:100F60002DE9F04786B005460E460024A24600BF94
:100F7000A1460027B08900B100BF2F462C8A4CF64D
:100F8000FF700440F08804432C82AC894EF6F310C5
:100F90000440B08831890843718908430443AC8117
:100FA000AC8A4FF6FF400440B0890443AC8201A8EC
:100FB000FFF712FC1F48874202D1DDF810A001E0C4
:100FC000DDF80CA0A88900F4004040B10AEBCA008B
:100FD00000EB0A1031684900B0FBF1F807E00AEBBA
:100FE000CA0000EB0A1031688900B0FBF1F86420F8
:100FF000B8FBF0F004012009642101FB1089A889E5
:1010000000F4004040B1322000EBC900B0FBF1F029
:1010100000F00700044308E0322000EB09106421CF
:10102000B0FBF1F000F00F0004432C8106B0BDE8E6
:10103000F08700000038014001468888C0F30800AE
:101040007047000000B585B001210420FFF7B4FB14
:1010500001214804FFF7A0FB0420ADF81000182080
:101060008DF8130003208DF8120004A91248FFF731
:101070008BFA0820ADF8100004208DF8130004A9A5
:101080000D48FFF781FA4FF4E13000900020ADF8F1
:101090000400ADF80600ADF80800ADF80C000C2017
:1010A000ADF80A0069460548FFF75AFF01210348D9
:1010B000FFF7EEFE05B000BD00080140004400400F
:1010C000C1F308028280704700B585B00121042079
:1010D000FFF772FB01218803FFF76EFB4FF40070EE
:1010E000ADF8100018208DF8130003208DF81200C1
:1010F00004A91748FFF748FA4FF48060ADF81000D4
:1011000004208DF8130004A91148FFF73DFA4FF4AD
:10111000E13000900020ADF80400ADF80600ADF815
:101120000800ADF80C000C20ADF80A00694609482B
:10113000FFF716FF00F010F8012240F22551054894
:10114000FFF7E9FE01210348FFF7A2FE05B000BD4D
:10115000000801400038014008B54FF4A060FFF7D7
:101160000FFB25208DF8000001208DF801008DF87F
:1011700002008DF803006846FFF7CAFA08BD0000B8
:1011800000B585B001210820FFF716FB0121880476
:10119000FFF702FB4FF48060ADF8100018208DF8C7
:1011A000130003208DF8120004A91348FFF7ECF98F
:1011B0004FF40060ADF8100004208DF8130004A96E
:1011C0000D48FFF7E1F94FF4E13000900020ADF851
:1011D0000400ADF80600ADF80800ADF80C000C20D6
:1011E000ADF80A0069460548FFF7BAFE0121034839
:1011F000FFF74EFE05B000BD000C01400048004066
:1012000000BFFEE72DE9F04105460C46260AE7B28D
:1012100031462846FFF754FF00BF80212846FFF7DC
:1012200043FE0028F9D000BF40212846FFF73CFECE
:101230000028F9D039462846FFF742FF00BF802139
:101240002846FFF731FE0028F9D000BF402128468C
:10125000FFF72AFE0028F9D0BDE8F0812DE9F04122
:1012600005460C46260CA7B231462846FFF7CAFFB2
:1012700039462846FFF7C6FFBDE8F08170B5044641
:101280000D4629462046FFF71BFF00BF8021204660
:10129000FFF70AFE0028F9D000BF40212046FFF7E3
:1012A00003FE0028F9D070BD30B528B1144C031FDF
:1012B000002021680A4605E0084630BD9A4203D85E
:1012C00010465268002AF9D1002800D041680BD09E
:1012D0000468A3EB0005A54204D11B681C44034627
:1012E000046002E0436000E023603AB11C68D51A54
:1012F000A54203D115682C441C6052685A6030BD69
:10130000400000202DE9F04782460F4C10480D4E5A
:101310000E4F001B4FF0000820F007054FF00109A9
:1013200000221146504600F025F8002802D130680E
:1013300010B10020BDE8F0873C60C4E90058C6F851
:101340000090EDE7440000206C02002040000020E7
:1013500068F2002002E008C8121F08C1002AFAD172
:1013600070477047002001E001C1121F002AFBD125
:10137000704700002DE9F0410B3020F00706104DBA
:1013800019E02068B04215D3B0420AD9871B201D4E
:10139000D4F80480FEF718FFA019C0E9007828608F
:1013A00004E060682860201DFEF70EFF201D266007
:1013B000BDE8F081251D2C68002CE2D10020F7E764
:1013C00040000020FEF7C6FF09E00548007820B184
:1013D000FEF7E0FF002002490870FFF713F8F4E77A
:1013E0001C0000202DE9F04704008A4616D054F86E
:1013F000047CD4F800903E1F564500D9564620463E
:10140000FFF752FF05468846324621465046FFF711
:10141000B1FF40B1C0F80090BDE8F087BDE8F047EB
:101420000846FFF76FBF44E9017955B129686A188A
:10143000211F8A4202D9611B091F2960C5F8048057
:10144000EAE7024AC2F80080E6E700004000002018
:101450003232323031363333333231303032303071
:1014600030300000323232303136333333323130C3
:1014700030313830303000003232323031363333B0
:10148000333231303031393030300000AC140008A4
:10149000000000204800000054130008F414000865
:1014A0004800002020F6000064130008000000003F
:1014B00001020304010203040607080902040608E6
:1014C000000000000000000000000000000000001C
:1014D000000000000000000000000000641400088C
:1014E00078140008501400080100000000000000FB
:0414F00000000000F8
:0400000508000131BD
:00000001FF
